:020000040800F2
:10000000F007002099010008E522000801220008FD
:10001000E122000809060008F9220008000000009B
:10002000000000000000000000000000ED220008B9
:10003000AD07000800000000E9220008F1220008D6
:10004000B3010008B3010008B3010008B3010008C0
:10005000B3010008B3010008B3010008B3010008B0
:10006000B3010008B3010008B3010008B3010008A0
:10007000B3010008B3010008B3010008B301000890
:10008000B3010008B3010008B3010008B301000880
:10009000B3010008B3010008B3010008B301000870
:1000A000B3010008B3010008B3010008B301000860
:1000B000B3010008B3010008B3010008B301000850
:1000C000B3010008B3010008B3010008B301000840
:1000D000B3010008B3010008B3010008B301000830
:1000E000B3010008B3010008B301000800F002F8F2
:1000F00000F042F80AA090E8000C82448344AAF180
:100100000107DA4501D100F037F8AFF2090EBAE87D
:100110000F0013F0010F18BFFB1A43F0010318473B
:100120003824000058240000103A24BF78C878C151
:10013000FAD8520724BF30C830C144BF04680C60ED
:10014000704700000023002400250026103A28BF35
:1001500078C1FBD8520728BF30C148BF0B60704739
:10016000642900F0AB80732900F0B3810020704750
:100170001FB51FBD10B510BD00F0AFF91146FFF758
:10018000F7FF02F0BBF800F0CDF903B4FFF7F2FF80
:1001900003BC00F0D5F90000094880470948004732
:1001A000FEE7FEE7FEE7FEE7FEE7FEE7FEE7FEE727
:1001B000FEE7FEE704480549054A064B7047000084
:1001C000F5220008ED000008F0010020F0070020F3
:1001D000F0030020F00300200FB41CB5074B06AA63
:1001E0007B4469460090059800F049F90020694673
:1001F00000F058F91CBC5DF814FB0000C1020000BF
:100200002DE9F0410E460446002020622046E168B8
:10021000884730B3252805D0D4E901219047206ACA
:10022000401CF2E7E168204600278847050018D007
:10023000A5F14100192802D820354FF40067324655
:10024000294620462760FFF78BFF40B1012804D0E4
:10025000F61D26F007060836D8E7361DD6E72846ED
:10026000DAE7206ABDE8F08170B50C460546012A40
:1002700005D02878800600D5EA69002302E0012332
:1002800005E05B1C934202D2E05C0028F9D1A8692A
:10029000E618C01AA861286A184428622846AFF3F5
:1002A000008004E0D5E9012114F8010B9047B44225
:1002B000F8D32846AFF3008070BD00002DE9F0416F
:1002C0000646002410687529314616A510D0AFF3F4
:1002D0000080002802DA404213A507E031688A074F
:1002E00001D512A502E0490704D511A5012401E0BA
:1002F000AFF3008000210A2206F1240709E0B0FBD9
:10030000F2FCB0FBF2F302FB1C00303078541846CC
:10031000491C0028F3D123462A463046BDE8F04167
:1003200000F04EB8000000002D0000002B0000007F
:100330002000000040EA0103024630B59B0710D1BF
:100340004FF0013400E008C208C91D1B9D4315EAA7
:10035000C41FF8D013F0FF0102F8011B0DD01B0AD7
:10036000F8E711F8013B002B02F8013B05D011F82A
:10037000013B002B02F8013BF3D130BD10B5431C0B
:1003800002E010F8011B71B18107FAD14FF0013280
:1003900002C88C1A8C4314EAC211F9D0C01A0A069A
:1003A00003D0C01E10BDC01A10BD0A0401D0801EAB
:1003B00010BD0902FCD0401E10BD70477047704749
:1003C0002DE9F0470D4699469246044600F124086F
:1003D0000168880604D5E06921F01001216000E081
:1003E0000120A84201DD471B00E00027A1697A191E
:1003F00002EB0900081AA0612078C00602D420464A
:10040000AFF30080002608E0D4E901211AF80600C5
:100410009047206A401C761C20624E45F4DB207811
:10042000C0060AD52046AFF3008006E0D4E90121DA
:1004300030209047206A401C2062381EA7F1010737
:10044000F4DC07E0D4E9012118F805009047206AA0
:10045000401C2062281EA5F10105F3DC2046AFF305
:1004600000802078000602D50220BDE8F087012038
:10047000FBE7000001694A1C02610878704700B57B
:100480008FB0CDE901310021059105497944CDE9CD
:10049000031011466846FFF7B3FE0FB000BD000021
:1004A000E5FFFFFF0A6802F8010B0A60704710B50C
:1004B000436913B1AFF3008001E0FFF7D5FE0120DF
:1004C00010BD127800F124010A7000224A70012246
:1004D000EDE711684FF0FF32E9E7754600F02CF8C0
:1004E000AE4605006946534620F00700854618B021
:1004F00020B5FFF75FFEBDE820404FF000064FF04B
:1005000000074FF000084FF0000BAC46ACE8C00904
:10051000ACE8C009ACE8C009ACE8C00921F00701AB
:100520008D46704710B50446AFF300802046BDE805
:100530001040FFF72ABE000000487047100000205E
:1005400001491820ABBEFEE72600020070470000FC
:10055000B0B582B004460020019021688A68D207B5
:100560004FD1886840F00100886040F20800C2F274
:10057000000000684DF68361C4F21B31A0FB01014D
:10058000880C01900198A0B1019801380190019860
:1005900078B1019801380190019850B10198013863
:1005A0000190019828B10198013801900198002824
:1005B000EAD100F0AFFD21688968C9071CD1054662
:1005C00003E000BF8068C0071AD100F0A3FD411B03
:1005D00020680329F6D38168C907F3D1A06A40F0E7
:1005E0001000A062E06A40F00100E062002084F8A0
:1005F0002400012002B0B0BD002002B0B0BD00BF99
:10060000002002B0B0BD0000FEE7000040F2700C18
:100610000246C2F2000C40F2F0008CF80010C2F268
:10062000000011468CF80130CCF80420FFF782BEA0
:10063000B0B586B00446D0E90010029111210391B3
:10064000012104910221059102A900F049FC606892
:100650002188012200F058FD6068218800220025D1
:1006600000F052FD142000F027FC60682188012270
:1006700000F04AFDD4E900100595CDE9021502A964
:10068000049500F02DFC00BF6068218800F036FD65
:100690000128F9D06068218800F030FD0028F9D0E9
:1006A0006068218800F02AFD0128F9D0204600F07A
:1006B0003BF840F2B005C2F200052870204600F079
:1006C00033F86870204600F02FF8A870204600F03C
:1006D0002BF8E870204600F027F82B78AA786C1DDC
:1006E000287108A12046FFF777FD2B7895F801C007
:1006F000A978EA782046CDF800C0FFF787FF06B05A
:10070000B0BD00BF74656D3D25642668756D3D25DF
:100710006400000040F2541CC2F2000CCCF800103F
:10072000C0E90032704700002DE9F04381B040F28B
:10073000541904464FF00008C2F20009002500BF1A
:100740006068218800F0DAFC0028F9D0D9F80000B0
:100750000168C1F8248001F04BFAD9F80000016863
:100760004A6A312A08D84A6A312A05D84A6A312A9F
:1007700002D84A6A322AF3D301F06EFA60682188FF
:1007800000F0BCFC0138B0FA80F0460960682188AE
:1007900000F0B4FC0128F9D046EA4707072D05F11F
:1007A0000105CDD3F8B201B0BDE8F0837047000079
:1007B00010B581B00022009290F82420012A03D1C4
:1007C0000221084601B010BD4B680122062B80F8BB
:1007D000242017D8D0F800C003EB83035A1F1F232F
:1007E000DCF834E003FA02F40B682EEA040403FA9E
:1007F00002F22243CCF83420092B03EB430219D92F
:1008000036E000BFD0F800C00C2B03EB83021DD8EC
:10081000233A1F23DCF830E003FA02F40B682EEAD7
:10082000040403FA02F22243CCF83020092B03EB34
:1008300043021DD8DCF81030072489689440A34394
:1008400091401943CCF81010002130E0413A1F23A9
:10085000DCF82CE003FA02F40B682EEA040403FA35
:1008600002F22243CCF82C20092B03EB4302E1D9FE
:10087000DCF80CE01E3A0724896894402EEA040450
:10088000914023F001022143102ACCF80C100DD125
:1008900042F20841C4F20101A1F1080294450DD0D1
:1008A000816A41F020018162012100E000210022E3
:1008B00080F82420084601B010BD00BF0A6812026B
:1008C00030D40A68102B42F400020A602CD140F2A6
:1008D0000801C2F2000109684DF68362C4F21B32BE
:1008E000A1FB0212910C01EB8101490000910099DA
:1008F000E1B10099013900910099C9B1009901391C
:1009000000910099B1B1009901390091009999B114
:10091000009901390091009900294FF00001E8D1B8
:10092000C5E700BF0021C2E70021C0E70021BEE704
:100930000021BCE70021BAE70021B8E70068C06CDD
:1009400070470000B0B5002800F0A8800446806A17
:1009500020B121688868C0070BD114E00020E06254
:1009600084F82400204600F09BF821688868C007BE
:1009700009D0886820F00100886000F0CBFB216876
:100980008A68D20726D1A06AC0063AD4A06A41F28A
:10099000021290430230A062E069D4E9013240EAD9
:1009A000030C531EB3FA83F35D091346B2F5807F3F
:1009B00018BF2B02207D257B01284CEA450030D151
:1009C00035B3A56A45F02005A562E56A45F0010545
:1009D000E56226E0054602E08868C007D3D000F053
:1009E00099FB401B21680328F6D38868C007F3D021
:1009F000A06A40F01000A062E06A40F00100E062EE
:100A0000A06AA06A40F01000A0620120B0BD00BF43
:100A1000D4F818C04EF60005CFF6FF7505EB4C353F
:100A20002B434D68B2F5807F25F4694543EA050301
:100A30004B608B684FF2FD75CFF6E17503EA050355
:100A400043EA00038B6001D0012A07D12269002309
:100A5000CFF6F07303EB025201E000BF0022CB6A35
:100A600023F470031A43CA62896840F6FE62CFF627
:100A70001F721140814207D10020E062A16A012269
:100A800062F30101A162B0BDA06A40F0100020F045
:100A90000200A062E06A40F00100E0620120B0BD07
:100AA00080B586B0014640F60000C4F20100096836
:100AB00000F5E05291424FF00001CDE9041101D060
:100AC00006B080BD41F21801C4F202010A6842F486
:100AD00000720A600A6802F400720192019A0A68C0
:100AE00042F004020A60096801F0040101910199D1
:100AF000042102910321039102A900F0F1F906B04B
:100B000080BD0000F0B581B000270D460446009777
:100B100000F000FB21688A68D20543D40646486885
:100B2000C00503D4C86A10F4700F45D040F2080025
:100B3000C2F200000768022000F096FB216844F62C
:100B400024130A69B7FBF0F0C2F292431A4206D1AD
:100B5000CA6844F62413C0F292031A425ED00A69AE
:100B600042F29243C1F249231A4207D1CA6842F2C3
:100B70009243C0F249031A4200F0C0800A6949F268
:100B80004923C0F224031A424FF0FC0257D1CF6828
:100B90001F4208BF5422009B02FB00F7BB4253D305
:100BA000C3E000BFA06A40F02000A06284F8247077
:100BB000012001B0F0BD00BF0868800700F1B580DA
:100BC000681C00F0A880FDB90868800772D5086825
:100BD000800700F1AA80086880076BD50868800745
:100BE00000F1A3800868800764D50868800700F1D9
:100BF0009C80086880075DD508688007E4D594E08C
:100C00000868800700F1918000F084FA801B216859
:100C1000A842F5D908688007F2D44BE00A6942F28D
:100C20009243C1F249231A424FF0290207D1CB68FF
:100C300042F29247C0F249073B4208BF1422009B90
:100C400002FB00F7BB4270D2681C4FD055BB009826
:100C5000B8422FD30098013000900098B84264D277
:100C60000098B84226D30098013000900098B8420E
:100C70005BD20098B8421DD30098013000900098D4
:100C8000B84252D20098B84214D300980130009074
:100C90000098B842DBD348E00098013000900098FB
:100CA000B84233D200F036FA801BA842F4D900983B
:100CB000B842F1D2A06A40F00400A062002084F89B
:100CC0002400032001B0F0BD00980130009000988E
:100CD000B8422AD20098013000900098B84224D23D
:100CE0000098013000900098B8421ED20098013060
:100CF00000900098B842E7D317E000BF5422009B51
:100D000002FB00F7BB429FD30FE000BF21680CE05D
:100D10000868800709D40868800706D40868800737
:100D20005CBF08685FEA8070F2D56FF0120008605F
:100D3000A06A40F40070A062886800F46020B0F5FA
:100D4000602F01D1207B18B1002001B0F0BD00BFA1
:100D5000A06A20F48070A062A06AC004F4D4A06AE3
:100D600040F00100A062002001B0F0BD10B50446C3
:100D700090F82400012804BF022010BD012084F84F
:100D800024002046FFF7E4FB20B1002184F8241062
:100D900010BD00BF42F2044C2068A16AC4F2010CED
:100DA00040F2013291430CF57F7201F5807190425F
:100DB000A16233D0A16A21F48011A1624168490582
:100DC00004D5A16A012363F30D31A162A16A002356
:100DD000C9044FF0000144BFE16A21F00601E1625D
:100DE0006FF0020184F824300160816801F4602111
:100DF000B1F5602F06D190420AD1DCF8001011F451
:100E0000702F05D0816841F480118160002010BDF1
:100E1000816841F4A0018160002010BDDCF8001061
:100E200011F4702FC6D0A16A41F48011A162DCF8E0
:100E300000104905C5D4C9E7B0B5044690F82400B0
:100E4000012804BF0220B0BD0121206884F82410CD
:100E50008168C90709D0816821F00101816000F033
:100E600059F921688968C9070ED1214651F8280F20
:100E700041F2011220EA0202002042F001020A605F
:100E8000002184F82410B0BD054602E08068C00748
:100E9000EBD000F03FF9411B20680329F6D38168AD
:100EA000C907F3D0A06A214640F01000A06251F8B3
:100EB0002C2F0120E1E70000B0B5044600F02AF92C
:100EC000054640F20000C2F200000078611C18BF25
:100ED000044400BF00F01EF9401BA042FAD3B0BD8D
:100EE0002DE9F04F82B00E68002E00F0038141F230
:100EF0000042C4F20102042340F2004E904208BFB7
:100F000003234FF6FF7CC4F2010E0093002401235B
:100F1000C1F2100C4FF0000A4FF0000949E000BF89
:100F2000012704F00C030F229A402BEA020207FA71
:100F300003F34FEA9A051A4346F82520D1F804B086
:100F400040F20C455FEACB22DEF8082054BF22EACB
:100F5000080242EA0802C4F20105CEF808202A6815
:100F60005FEA8B2354BF22EA080242EA08022A60A1
:100F70005FEA8B33DEF8042054BF22EA080242EA1B
:100F800008025FEACB33CEF80420DEF800204FF0F1
:100F9000010354BF22EA080242EA0802CEF8002008
:100FA0000E680AF1010A36FA0AF204F1040400F0AC
:100FB000A18003FA0AF816EA080FF1D04E686645D8
:100FC00012DC122E56D8DFE806F0350B4549555590
:100FD00055555555555555555555554D510000BF0D
:100FE000D1F80C9046E000BF4FF6FF72C1F221022B
:100FF00096420FDC0022C1F2110296421AD0002262
:10100000C1F21202964215D00022C1F2210296428C
:1010100010D02FE00022C1F2220296420AD0002214
:10102000C1F23102964205D00022C1F2320296424C
:1010300020D100BF8A684AB1012A14BFC0F81480C9
:10104000C0F810804FF0080914E000BF4FF0040909
:1010500010E000BFCA6802F108090BE04FF0000978
:1010600008E000BFCA6802F1040903E0CA6802F19F
:101070000C0900BF22460646BAF1080F24BF203AE9
:10108000043637680F25954027EA050509FA02F26C
:101090002A433260CA79D2067FF582AF41F2180343
:1010A000C4F202031A68AEF57E7642F001021A60BD
:1010B0001A6802F001020192019A2AF0030256F81E
:1010C00002B040F60002C4F20102904210D040F695
:1010D0000042C4F2010290423FF422AF41F200020A
:1010E000C4F20102009F904208BF022719E700BF27
:1010F000002716E702B0BDE8F08F000080680840C6
:1011000018BF012070470000002A08BF09040161D0
:101110007047000040F2E810C2F20000006870471B
:1011200040F2000040F2E811C2F20000C2F20001F9
:1011300000780A68104408607047000080B542F2E9
:101140000000C4F20200016841F0100101600320B8
:1011500000F07AF80F2000F005F800F027F80020E2
:1011600080BD000070B540F20006C2F2000640F2F9
:1011700008013278C2F200014FF47A730968B3FBB8
:10118000F2F20446B1FBF2F1084600F04DFC0F2CE0
:101190004FF0010508D838B94FF0FF302146002242
:1011A000002500F025F87460284670BD82B041F239
:1011B0001800C4F202000168022241F0010101603E
:1011C000016801F0010101910199416841F08051EC
:1011D0004160406800F08050009000980420C4F204
:1011E0000100016862F31A61016002B070470000FB
:1011F00010B54EF60C5CCEF2000CDCF80030C3F3F8
:10120000022E8EF00704042C28BF0424BEF1030331
:101210004FF0FF3E0EFA04F438BF0023A14399407B
:101220000EFA03F39A43114300F00F0200F16043FA
:101230000901043A03F564436244002848BF02F1FF
:101240000C03197010BD00004EF60C51CEF20001D7
:101250000A684FF6FF031A4060F30A2242F08060EA
:1012600040F0FD700860704780B5012818D0022852
:1012700036D0102832D141F20401C4F202010A68CA
:1012800051F8040CC00129D5C2F383402DA3185C8A
:10129000D2033DD440F60012C0F23D02504343E079
:1012A00041F20400C4F20200C16940F202320A4075
:1012B000B2F5817F04BF4FF4004080BD01F440715E
:1012C000B1F5407F1CD0B1F5007F07D1006A49F627
:1012D0004041800701EAE07080BD00BF002080BD72
:1012E00000F0B4F941F20401C4F2020109680222DB
:1012F000C1F3813102EB4101B0FBF1F080BD00BFD1
:1013000050F8040C4FF22441800301EAE07080BDE4
:101310000A6810A3C2F340429A5C41F20023C0F273
:101320007A03B3FBF2F250430968490248BF80BD1B
:101330004AF6AB214000CAF6AA21A0FB01014808E9
:1013400080BD00BF02030405060708090A0B0C0D47
:101350000E0F1010010200002DE9F04182B004468A
:10136000007841F21C06C007C4F202064AD0306879
:1013700010F0805808D1306840F0805030603068FC
:1013800000F080500190019847F20007C4F2000776
:101390003868C00512D4386840F480703860FFF7B0
:1013A000B9FE05463868C00508D4FFF7B3FE401BF8
:1013B0006428F7D9032002B0BDE8F081706810F40A
:1013C000407012D0616801F4407188420DD070689D
:1013D00040F24042C4F24222012320F440711360E3
:1013E0000023C007136071602AD17068616820F41F
:1013F00040700843B8F1000F706003D1306820F0EE
:10140000805030602068810707D556F8181CA26804
:1014100021F44041114346F8181CC00604D40020B2
:1014200002B0BDE8F08100BF56F8180CE16820F466
:101430008000084346F8180C002002B0BDE8F08197
:10144000FFF768FE054641F2883700BF70688007E5
:10145000CBD4FFF75FFE401BB8424FF00300F5D935
:10146000EBE700002DE9F04381B0002800F0858013
:1014700042F20008C4F202080446D8F800000D4603
:1014800000F0070088420CD2D8F8000020F00700D6
:101490002843C8F80000D8F8000000F00700A84270
:1014A0006BD1206841F204098107C4F2020917D503
:1014B000410705D5D9F8001041F4E061C9F80010E2
:1014C000010705D5D9F8001041F46051C9F80010A2
:1014D000D9F80010A26821F0F0011143C9F80010FA
:1014E000C00741D1D8F8000000F00700A8420CD98D
:1014F000D8F8000020F007002843C8F80000D8F80A
:10150000000000F00700A84237D12068410707D546
:10151000D9F80010E26821F4E0611143C9F8001025
:10152000000708D5D9F80000216920F4605040EA8E
:10153000C100C9F80000D9F8002002F00C0008280A
:1015400041F20020C0F27A0050D142F24653C2F379
:101550008341C0F60003595CD2033BD440F600102F
:10156000C0F23D00484341E0606802280AD00128EB
:101570002AD159F8041C890308D4012001B0BDE820
:10158000F08300BF59F8041C8901F6D5D9F8001082
:1015900021F003010843C9F80000FFF7BBFD064630
:1015A00041F28837D9F80000616800F00C00B0EB18
:1015B000810F97D0FFF7AEFD801BB842F2D9032010
:1015C00001B0BDE8F08300BF59F8041C8907D4D5E9
:1015D000DCE700BFD9F8002042F24453C2F3404296
:1015E000C0F600039A5C4843B0FBF2F0D9F8001053
:1015F00042F22C52C1F30311C0F60002515C40F2DA
:10160000080220FA01F140F20400C2F20000006872
:10161000C2F200021160FFF7A5FD002001B0BDE895
:10162000F083000040F2080041F20401C2F2000021
:10163000C4F202010068096842F23C52C1F302217F
:10164000C0F60002515CC8407047000040F208003C
:1016500041F20401C2F20000C4F20201006809680C
:1016600042F23C52C1F3C221C0F60002515CC840B4
:10167000704700002DE9F04182B0002868D0044690
:10168000007841F20006C007C4F2020625D0706857
:1016900000F00C0004281BD0706800F00C00082833
:1016A00002D17068C00313D46068002800F068811C
:1016B000B0F5A02F00F07C81B0F5803F00F07C8178
:1016C000306820F480303060306820F4802076E18B
:1016D0003068800301D56068D0B32078800718D5C2
:1016E000706810F00C0F07D0706800F00C0008282C
:1016F0006ED17068C0036BD43068800702D5206952
:10170000012825D13068616920F0F80040EAC10065
:101710003060207800071FD42078400732D4E56974
:1017200095B1706800F00C00082840F08F80012D02
:101730000ED07068216A00F480328A4208D1616A52
:1017400000F47010884203D1002002B0BDE8F0819F
:10175000012002B0BDE8F081A069002862D000201D
:10176000C4F242200121C0F88014FFF7D3FC0546E3
:10177000706A800700F18C80FFF7CCFC401B0228C8
:10178000F6D92AE1F06910F0805808D1F06940F0EC
:101790008050F061F06900F080500090009847F2AE
:1017A0000007C4F200073868C00529D4386840F43F
:1017B00080703860FFF7AEFC054600BF3868C00592
:1017C0001ED4FFF7A7FC401B6428F7D905E100BF32
:1017D0002069002840F20000C4F2422000F082801C
:1017E00001210160FFF796FC054600BF30688007C5
:1017F0003FF588AFFFF78EFC401B0228F6D9ECE0DE
:10180000E068002800F08080052800F0978001281B
:1018100000F09880306A20F001003062306A20F0D9
:10182000040092E00020C4F242200021C0F880149D
:10183000FFF770FC054600BF706A80077FF56CAF4C
:10184000FFF768FC401B0228F6D9C6E00027C4F267
:10185000422700203866FFF75DFC022D05460BD1BC
:101860003068800140F1BE80FFF754FC401B022825
:101870004FF00300F4D968E7306880017FF564AF6A
:10188000FFF748FC401B02284FF00300F4D95CE747
:1018900040F20800C2F20000006844F6D351C1F2E1
:1018A0006201A0FB0101480A019000BF00BF01983E
:1018B000411E002801913FF42FAF00BF0198411E47
:1018C000002801913FF428AF00BF0198411E002875
:1018D00001913FF421AF00BF0198411E0028019102
:1018E000E4D119E700210160FFF714FC054600BFB1
:1018F000306880077FF50DAFFFF70CFC401B022816
:101900004FF00300F4D920E7306A20F00100306284
:10191000306A20F004003062FFF7FCFB054641F21C
:10192000883700BF306A800720D5FFF7F3FB401BE4
:10193000B8424FF00300F5D907E700BF306A40F026
:1019400004003062306A40F001003062FFF7E2FBD1
:10195000054641F2883700BF306A800706D4FFF79A
:10196000D9FB401BB842F7D937E000BFB8F1000FF0
:101970007FF4D5AEF06920F08050F061CFE600BF73
:10198000306820F480303060306820F4802030608F
:10199000FFF7C0FB054600BF306880037FF59DAEB2
:1019A000FFF7B8FB401B64284FF00300F4D9CCE6E6
:1019B000306840F480203060306840F4803030601F
:1019C000FFF7A8FB054600BF306880033FF585AEF2
:1019D000FFF7A0FB401B6428F6D9032002B0BDE846
:1019E000F08100BF206AB0F5803F05D17168A26820
:1019F00021F40031114371607168626A21F474113D
:101A000011430843706001203866FFF783FB0446EA
:101A1000306880013FF598AEFFF77CFB001B022881
:101A20004FF00300F4D990E6411E0020B0EB116F97
:101A30001CBF012070474EF21002CEF2000251602E
:101A40004EF62351CEF20001F0230B700721906077
:101A50001160704710B590F83C20012A4FF0020247
:101A600033D080F83D200268D2F804E0D2F808C0F4
:101A70000C682EF07003234340F2FF74C4F200049C
:101A8000A24253600ADCB2F1804F13D040F200430F
:101A9000C4F200039A420DD011E000BF42F60043A9
:101AA000C4F201039A4205D040F60003C4F20003D9
:101AB0009A4204D149682CF08003194391600121B6
:101AC000002280F83D1080F83C20104610BD000038
:101AD000002804BF0120704710B5044690F83D006F
:101AE00028B9002084F83C00204600F067F8022066
:101AF00084F83D00206840F2FF730268C4F20003DE
:101B000042F6004C9842C4F2010C15DCB0F1804F53
:101B10001AD040F20041C4F20001884214D0984229
:101B200018DCB0F1804F1DD040F20041C4F200013A
:101B3000884217D01AE000BF604505D040F600018A
:101B4000C4F200018842EAD1A16822F070020A437F
:101B50009842E6DD604505D040F60001C4F2000180
:101B6000884203D1216922F440720A43A36922F01A
:101B70008001D4F804E0E268194360450160C26264
:101B8000C0F828E002D16169CCF830100121416130
:101B9000002084F8461084F83E1084F83F1084F842
:101BA000401084F8411084F8421084F8431084F8FF
:101BB000441084F8451084F83D1010BD81B00068D1
:101BC00042F60041C4F20101884201D001B07047E1
:101BD00041F21800C4F20200016841F400610160A2
:101BE000006800F400600090009801B070470000A9
:101BF00090F83D1001291CBF01207047022180F898
:101C00003D10006840F2FF71C4F20001884209DC17
:101C1000B0F1804F12D040F20041C4F2000188427E
:101C20000CD012E042F60041C4F20101884205D016
:101C300040F60001C4F20001884206D1816801F03B
:101C40000701062904BF00207047016841F0010127
:101C500001600020704700000146006841F2111346
:101C6000026A1A4204D00122002081F83D20704708
:101C7000026A40F244431A42F5D1026822F001029E
:101C800002600122002081F83D20704780B590F865
:101C90003C20012A4FF0020200F0C28080F83D2073
:101CA000D0F800C04FF67772DCF8083023EA020261
:101CB000CCF808200B684F2B28DC1F2B44DD202B91
:101CC00045D0302B43D0402B40F0AC80D1F804E01D
:101CD000C968DCF82030DCF8202022F00102CCF8C2
:101CE0002020DCF8182022F0F00242EA011123F053
:101CF0000A0242EA0E02CCF81810CCF82020DCF8D8
:101D0000081041F0470121F0300180E06F2B27DD02
:101D1000B3F5005F48D0B3F5805F7AD0702B40F008
:101D20008180D1E901E3C968DCF8082043EA0E03A9
:101D300022F47F4243EA01211143CCF80810DCF879
:101D4000081041F0770162E00BB1102B6AD1DCF88A
:101D5000081021F07001194341F0070157E000BF5E
:101D6000502B35D0602B5DD1D1F804E0C968DCF888
:101D70002030DCF8202022F01002CCF82020DCF803
:101D8000182022F4704242EA013123F0A00242EA14
:101D90000E12CCF81810CCF82020DCF8081041F016
:101DA000670121F0100132E0D1E901E3C968DCF8F4
:101DB000082043EA0E0322F47F4243EA0121114343
:101DC000CCF80810DCF8081041F480411FE000BF97
:101DD000D1F804E0C968DCF82030DCF8202022F0DB
:101DE0000102CCF82020DCF8182022F0F00242EAB0
:101DF000011123F00A0242EA0E02CCF81810CCF8C6
:101E00002020DCF8081041F0570121F02001CCF827
:101E100008100022012180F83D10002180F83C10BC
:101E2000104680BD0122F5E7002804BF012070475D
:101E300010B5044690F8410028B9002084F840000D
:101E4000204600F063F8242084F841002068D4E99B
:101E50000212C36823F40053C360036923F44053A0
:101E60001A430261D4E904231143C268194341F2C1
:101E70000C639A431143C1604169A26921F4407126
:101E8000114343F60002C4F201029042416103D0C3
:101E9000FFF7C8FB02E000BFFFF7D8FB626819211B
:101EA00048439100B0FBF1F048F21F51C5F2EB112D
:101EB000A0FB01235A094FF69C73C0F6FF7302FB87
:101EC0000300322303EB0010A0FB0101F02303EA1F
:101ED0005113206803EB0212C1F3431111448160D6
:101EE000016921F490410161416921F02A014161B8
:101EF000C16841F40051C16000202021606484F871
:101F0000411084F84210606310BD000070B586B0C7
:101F100040F60004C4F20104006804F540510026B4
:101F20008842049602D006B070BD00BF41F218008E
:101F3000C4F20200016802AD41F480410160016811
:101F400001F4804101910199016841F004010160AF
:101F50000068294600F00400019001984FF40070D9
:101F6000029002200390032005902046FEF7B8FF60
:101F70004FF48060CDE90206204629460496FEF71C
:101F8000AFFF06B070BD00002DE9F04381B00446FC
:101F900090F84100202840F0B180884600294FF099
:101FA000010000F0D6801646002A00F0D280002002
:101FB000606421201D4684F84100FFF7ABF8A68439
:101FC000E684A1680646B1F5805F03D12069002848
:101FD00000F0988047464FF00008E18C2068002907
:101FE00000F0968005F101090BE000BF47B317F838
:101FF000011B4160E18C0139E184E18C002900F092
:10200000878001680906F1D4B9F1000F0AD0EDB15B
:10201000FFF780F8801BA84218D8206801680906DD
:10202000F6D5E3E701680906E0D4016809065CBF5C
:1020300001685FEA0161D9D401680906F2D5D5E7E4
:1020400038F8021B00276FF35F21D2E7206850E8C1
:10205000030F216820F4D07041E80302BAB320686E
:1020600050E8030F216820F4D07041E8030272B3F6
:10207000206850E8030F216820F4D07041E8030283
:102080002AB3206850E8030F216820F4D07041E89B
:102090000302002ADAD11AE0206850E8050F21680F
:1020A00020F0010041E80502DAB1206850E8050F90
:1020B000216820F0010041E8050292B1206850E853
:1020C000050F216820F0010041E805024AB12068AF
:1020D00050E8050F216820F0010041E80502002AC0
:1020E000DAD1202084F8410084F84200002084F8EE
:1020F0004000032001B0BDE8F08300BF022001B022
:10210000BDE8F0830027E18C206800297FF46AAFE6
:102110000168490619D4FDB1691C0DD10168490651
:1021200013D4016849065CBF01685FEA41610CD4C1
:1021300001684906F2D508E0FEF7ECFF801BA842D3
:102140000AD8206800684006F6D5202084F84100AF
:10215000002001B0BDE8F083206850E8030F21683B
:1021600020F4D07041E80302002A3ED0206850E8F5
:10217000030F216820F4D07041E80302AAB320685D
:1021800050E8030F216820F4D07041E8030262B3E5
:10219000206850E8030F216820F4D07041E8030262
:1021A000002AD9D121E000BF206850E8050F21683E
:1021B00020F0010041E80502002A3FF492AF2068B8
:1021C00050E8050F216820F0010041E80502002ACF
:1021D0003FF487AF206850E8050F216820F0010028
:1021E00041E80502002A3FF47CAF206850E8050F63
:1021F000216820F0010041E80502002AD4D170E7EF
:10220000FEE7000010B540F2E804C2F20004606886
:10221000FEF7ACFD60684FF47A71FEF773FC6068FE
:10222000FEF78CFB4FF24C1281B2CFF6FE726323A5
:1022300001FB032147F6C162C4F2135281FB021273
:102240002080901200EBD27000F0FC01632988BF5F
:102250000020C0B200F00CF86068BDE81040FEF746
:10226000EBBD000040F2E801C2F200014860704797
:10227000B0B504460F2840F600004FF00002C4F24B
:1022800001004FF4006188BF0122FEF73DFF40F2DC
:102290000C0140F27000C2F2000140F2F005C2F2FF
:1022A00000000A68C2F2000584700AA1284623468D
:1022B000FDF792FF2846FEF761F882B240F2A010C7
:1022C000C2F2000029464FF47A73BDE8B040FFF730
:1022D0005BBE00BF2573266761733D256400000067
:1022E000FEE70000FEE700007047000070470000B6
:1022F000FEF716BF70470000FEE7000094B0FEF73F
:102300001DFF00240120CDE90F44CDE90D440A90C2
:102310000E904FF4E0104FF48031022513900AA87C
:102320000394CDE90144CDE90B14CDE91151FFF738
:10233000A1F928B1EFF3108072B600BFFEE700BF2D
:102340000F20CDE904054FF48060CDE9070404A80F
:1023500002210694FFF786F820B1EFF3108072B6E1
:10236000FEE700BF4FF4004002250290684600954A
:10237000FEF7F2FF20B1EFF3108072B6FEE700BF68
:1023800041F21800C4F20200016840F6000441F076
:10239000100101600168C4F2010401F010010A910A
:1023A0000A990168002241F02001016001680026BD
:1023B00001F020010A910A99016841F004010160CD
:1023C00000684FF4005100F004000A900A9804F5E8
:1023D0000060FEF799FE4FF400600D950AAD0A907B
:1023E000012720462946CDE90B76FEF779FD2046E8
:1023F0002946CDE90A760C97FEF772FD40F2581097
:1024000004F51051C2F200004FF6FF730D96CDE9AE
:102410000B66CDE90466472280E84600C0E9033632
:10242000C0E90566FFF754FB20B1EFF3108072B6E8
:10243000FEE700BF4FF480500A9040F25810C2F2FD
:1024400000000AA9FFF722FC20B1EFF3108072B65A
:10245000FEE700BF40F25810C2F2000004A9FFF7E7
:10246000F9FA28B1EFF3108072B600BFFEE700BFA3
:1024700040F2A01004F54051C2F2000000260C23E7
:102480004FF4E13280E84600C0E90366C0E9053652
:10249000C661FFF7C9FC28B1EFF3108072B600BF28
:1024A000FEE700BF40F27005C2F2000504F5E051FE
:1024B000284640F8101F067306754FF46021C0E9E6
:1024C00001660126C1610661FEF73CFA20B1EFF317
:1024D000108072B6FEE700BF0220CDE90A06002098
:1024E00005F110060C900AA93046FEF761F928B1F3
:1024F000EFF3108072B600BFFEE700BF083540F270
:102500005811C2F20001284622460123FEF702F9C3
:102510003046FFF7A7FE00BF2846FEF789F8FFF711
:1025200071FE41F28830FEF7C7FCF5E700000000BD
:102530000000000001020304060708090000000073
:1025400001020304010202030405060708090A0B3D
:102550000C0D0E0F10100000782500080000002060
:102560001000000028010008882500081000002045
:10257000E007000044010008010000001000000016
:082580000024F400F00000202B
:04000005080000ED02
:00000001FF
